{
  "address": "0xEaee6d08C126C0ee07B72671B213E10418da4156",
  "abi": [
    {
      "inputs": [],
      "stateMutability": "nonpayable",
      "type": "constructor"
    },
    {
      "inputs": [
        {
          "internalType": "uint256",
          "name": "code",
          "type": "uint256"
        },
        {
          "internalType": "string",
          "name": "message",
          "type": "string"
        }
      ],
      "name": "Debug",
      "type": "error"
    },
    {
      "inputs": [],
      "name": "InsufficientBalance",
      "type": "error"
    },
    {
      "inputs": [],
      "name": "LockPeriodNotReached",
      "type": "error"
    },
    {
      "inputs": [
        {
          "internalType": "uint256",
          "name": "nftTokenId",
          "type": "uint256"
        },
        {
          "internalType": "address",
          "name": "beneficiary",
          "type": "address"
        }
      ],
      "name": "NftDoesNotBelongToBeneficiary",
      "type": "error"
    },
    {
      "inputs": [
        {
          "internalType": "address",
          "name": "beneficiary",
          "type": "address"
        }
      ],
      "name": "NoMembershipNftInWallet",
      "type": "error"
    },
    {
      "inputs": [],
      "name": "OnlyRelayerAllowed",
      "type": "error"
    },
    {
      "inputs": [],
      "name": "TransferNotAllowed",
      "type": "error"
    },
    {
      "anonymous": false,
      "inputs": [
        {
          "indexed": false,
          "internalType": "address",
          "name": "previousAdmin",
          "type": "address"
        },
        {
          "indexed": false,
          "internalType": "address",
          "name": "newAdmin",
          "type": "address"
        }
      ],
      "name": "AdminChanged",
      "type": "event"
    },
    {
      "anonymous": false,
      "inputs": [
        {
          "indexed": true,
          "internalType": "address",
          "name": "owner",
          "type": "address"
        },
        {
          "indexed": true,
          "internalType": "address",
          "name": "approved",
          "type": "address"
        },
        {
          "indexed": true,
          "internalType": "uint256",
          "name": "tokenId",
          "type": "uint256"
        }
      ],
      "name": "Approval",
      "type": "event"
    },
    {
      "anonymous": false,
      "inputs": [
        {
          "indexed": true,
          "internalType": "address",
          "name": "owner",
          "type": "address"
        },
        {
          "indexed": true,
          "internalType": "address",
          "name": "operator",
          "type": "address"
        },
        {
          "indexed": false,
          "internalType": "bool",
          "name": "approved",
          "type": "bool"
        }
      ],
      "name": "ApprovalForAll",
      "type": "event"
    },
    {
      "anonymous": false,
      "inputs": [
        {
          "indexed": true,
          "internalType": "address",
          "name": "beacon",
          "type": "address"
        }
      ],
      "name": "BeaconUpgraded",
      "type": "event"
    },
    {
      "anonymous": false,
      "inputs": [
        {
          "indexed": true,
          "internalType": "address",
          "name": "sender",
          "type": "address"
        },
        {
          "indexed": false,
          "internalType": "uint256",
          "name": "amount",
          "type": "uint256"
        },
        {
          "indexed": false,
          "internalType": "uint256",
          "name": "externalId",
          "type": "uint256"
        }
      ],
      "name": "DepositLocked",
      "type": "event"
    },
    {
      "anonymous": false,
      "inputs": [
        {
          "indexed": true,
          "internalType": "address",
          "name": "sender",
          "type": "address"
        },
        {
          "indexed": false,
          "internalType": "uint256",
          "name": "amount",
          "type": "uint256"
        },
        {
          "indexed": false,
          "internalType": "uint256",
          "name": "externalId",
          "type": "uint256"
        }
      ],
      "name": "Deposited",
      "type": "event"
    },
    {
      "anonymous": false,
      "inputs": [
        {
          "indexed": false,
          "internalType": "uint8",
          "name": "version",
          "type": "uint8"
        }
      ],
      "name": "Initialized",
      "type": "event"
    },
    {
      "anonymous": false,
      "inputs": [
        {
          "indexed": true,
          "internalType": "address",
          "name": "sender",
          "type": "address"
        },
        {
          "indexed": false,
          "internalType": "uint256",
          "name": "amount",
          "type": "uint256"
        },
        {
          "indexed": false,
          "internalType": "uint256",
          "name": "index",
          "type": "uint256"
        }
      ],
      "name": "LockedDepositWithdrawn",
      "type": "event"
    },
    {
      "anonymous": false,
      "inputs": [
        {
          "indexed": true,
          "internalType": "address",
          "name": "sender",
          "type": "address"
        },
        {
          "indexed": false,
          "internalType": "uint256",
          "name": "amount",
          "type": "uint256"
        },
        {
          "indexed": false,
          "internalType": "uint256",
          "name": "externalId",
          "type": "uint256"
        }
      ],
      "name": "NftMinted",
      "type": "event"
    },
    {
      "anonymous": false,
      "inputs": [
        {
          "indexed": true,
          "internalType": "address",
          "name": "previousOwner",
          "type": "address"
        },
        {
          "indexed": true,
          "internalType": "address",
          "name": "newOwner",
          "type": "address"
        }
      ],
      "name": "OwnershipTransferred",
      "type": "event"
    },
    {
      "anonymous": false,
      "inputs": [
        {
          "indexed": true,
          "internalType": "address",
          "name": "from",
          "type": "address"
        },
        {
          "indexed": true,
          "internalType": "address",
          "name": "to",
          "type": "address"
        },
        {
          "indexed": true,
          "internalType": "uint256",
          "name": "tokenId",
          "type": "uint256"
        }
      ],
      "name": "Transfer",
      "type": "event"
    },
    {
      "anonymous": false,
      "inputs": [
        {
          "indexed": true,
          "internalType": "address",
          "name": "sender",
          "type": "address"
        },
        {
          "indexed": false,
          "internalType": "uint256",
          "name": "amount",
          "type": "uint256"
        }
      ],
      "name": "UnlockedDepositWithdrawn",
      "type": "event"
    },
    {
      "anonymous": false,
      "inputs": [
        {
          "indexed": true,
          "internalType": "address",
          "name": "implementation",
          "type": "address"
        }
      ],
      "name": "Upgraded",
      "type": "event"
    },
    {
      "inputs": [
        {
          "internalType": "address",
          "name": "to",
          "type": "address"
        },
        {
          "internalType": "uint256",
          "name": "tokenId",
          "type": "uint256"
        }
      ],
      "name": "approve",
      "outputs": [],
      "stateMutability": "nonpayable",
      "type": "function"
    },
    {
      "inputs": [
        {
          "internalType": "address",
          "name": "owner",
          "type": "address"
        }
      ],
      "name": "balanceOf",
      "outputs": [
        {
          "internalType": "uint256",
          "name": "",
          "type": "uint256"
        }
      ],
      "stateMutability": "view",
      "type": "function"
    },
    {
      "inputs": [],
      "name": "baseURI",
      "outputs": [
        {
          "internalType": "string",
          "name": "",
          "type": "string"
        }
      ],
      "stateMutability": "view",
      "type": "function"
    },
    {
      "inputs": [
        {
          "internalType": "uint256",
          "name": "amount",
          "type": "uint256"
        },
        {
          "internalType": "uint256",
          "name": "nftTokenId",
          "type": "uint256"
        },
        {
          "internalType": "address",
          "name": "beneficiary",
          "type": "address"
        },
        {
          "internalType": "uint256",
          "name": "externalId",
          "type": "uint256"
        }
      ],
      "name": "deposit",
      "outputs": [],
      "stateMutability": "nonpayable",
      "type": "function"
    },
    {
      "inputs": [
        {
          "internalType": "uint256",
          "name": "tokenId",
          "type": "uint256"
        }
      ],
      "name": "getApproved",
      "outputs": [
        {
          "internalType": "address",
          "name": "",
          "type": "address"
        }
      ],
      "stateMutability": "view",
      "type": "function"
    },
    {
      "inputs": [
        {
          "internalType": "address",
          "name": "_address",
          "type": "address"
        },
        {
          "internalType": "uint256",
          "name": "index",
          "type": "uint256"
        }
      ],
      "name": "getLockedDepositByIndex",
      "outputs": [
        {
          "internalType": "uint256",
          "name": "",
          "type": "uint256"
        },
        {
          "internalType": "uint256",
          "name": "",
          "type": "uint256"
        },
        {
          "internalType": "uint256",
          "name": "",
          "type": "uint256"
        },
        {
          "internalType": "uint256",
          "name": "",
          "type": "uint256"
        }
      ],
      "stateMutability": "view",
      "type": "function"
    },
    {
      "inputs": [
        {
          "internalType": "address",
          "name": "_address",
          "type": "address"
        }
      ],
      "name": "getTotalLockedDepositAmount",
      "outputs": [
        {
          "internalType": "uint256",
          "name": "total",
          "type": "uint256"
        }
      ],
      "stateMutability": "view",
      "type": "function"
    },
    {
      "inputs": [
        {
          "internalType": "address",
          "name": "_address",
          "type": "address"
        }
      ],
      "name": "getTotalLockedDepositByAddress",
      "outputs": [
        {
          "internalType": "uint256[]",
          "name": "nftTokenTokenIds",
          "type": "uint256[]"
        },
        {
          "internalType": "uint256[]",
          "name": "btrstAmounts",
          "type": "uint256[]"
        },
        {
          "internalType": "uint256[]",
          "name": "availableTimes",
          "type": "uint256[]"
        },
        {
          "internalType": "uint256[]",
          "name": "externalIds",
          "type": "uint256[]"
        }
      ],
      "stateMutability": "view",
      "type": "function"
    },
    {
      "inputs": [
        {
          "internalType": "address",
          "name": "_address",
          "type": "address"
        }
      ],
      "name": "getTotalUnlockedDeposit",
      "outputs": [
        {
          "internalType": "uint256",
          "name": "",
          "type": "uint256"
        }
      ],
      "stateMutability": "view",
      "type": "function"
    },
    {
      "inputs": [
        {
          "internalType": "address",
          "name": "_relayer",
          "type": "address"
        },
        {
          "internalType": "address",
          "name": "_btrstErc20",
          "type": "address"
        },
        {
          "internalType": "string",
          "name": "_baseURL",
          "type": "string"
        }
      ],
      "name": "initialize",
      "outputs": [],
      "stateMutability": "nonpayable",
      "type": "function"
    },
    {
      "inputs": [
        {
          "internalType": "address",
          "name": "owner",
          "type": "address"
        },
        {
          "internalType": "address",
          "name": "operator",
          "type": "address"
        }
      ],
      "name": "isApprovedForAll",
      "outputs": [
        {
          "internalType": "bool",
          "name": "",
          "type": "bool"
        }
      ],
      "stateMutability": "view",
      "type": "function"
    },
    {
      "inputs": [
        {
          "internalType": "uint256",
          "name": "amount",
          "type": "uint256"
        },
        {
          "internalType": "uint256",
          "name": "nftTokenId",
          "type": "uint256"
        },
        {
          "internalType": "address",
          "name": "beneficiary",
          "type": "address"
        },
        {
          "internalType": "uint256",
          "name": "availableTimeInSeconds",
          "type": "uint256"
        },
        {
          "internalType": "uint256",
          "name": "externalId",
          "type": "uint256"
        }
      ],
      "name": "lock",
      "outputs": [],
      "stateMutability": "nonpayable",
      "type": "function"
    },
    {
      "inputs": [
        {
          "internalType": "address",
          "name": "",
          "type": "address"
        },
        {
          "internalType": "uint256",
          "name": "",
          "type": "uint256"
        }
      ],
      "name": "lockedDeposits",
      "outputs": [
        {
          "internalType": "uint256",
          "name": "nftTokenId",
          "type": "uint256"
        },
        {
          "internalType": "uint256",
          "name": "btrstAmount",
          "type": "uint256"
        },
        {
          "internalType": "uint256",
          "name": "available",
          "type": "uint256"
        },
        {
          "internalType": "uint256",
          "name": "externalId",
          "type": "uint256"
        }
      ],
      "stateMutability": "view",
      "type": "function"
    },
    {
      "inputs": [],
      "name": "name",
      "outputs": [
        {
          "internalType": "string",
          "name": "",
          "type": "string"
        }
      ],
      "stateMutability": "view",
      "type": "function"
    },
    {
      "inputs": [],
      "name": "owner",
      "outputs": [
        {
          "internalType": "address",
          "name": "",
          "type": "address"
        }
      ],
      "stateMutability": "view",
      "type": "function"
    },
    {
      "inputs": [
        {
          "internalType": "uint256",
          "name": "tokenId",
          "type": "uint256"
        }
      ],
      "name": "ownerOf",
      "outputs": [
        {
          "internalType": "address",
          "name": "",
          "type": "address"
        }
      ],
      "stateMutability": "view",
      "type": "function"
    },
    {
      "inputs": [],
      "name": "proxiableUUID",
      "outputs": [
        {
          "internalType": "bytes32",
          "name": "",
          "type": "bytes32"
        }
      ],
      "stateMutability": "view",
      "type": "function"
    },
    {
      "inputs": [],
      "name": "relayer",
      "outputs": [
        {
          "internalType": "address",
          "name": "",
          "type": "address"
        }
      ],
      "stateMutability": "view",
      "type": "function"
    },
    {
      "inputs": [],
      "name": "renounceOwnership",
      "outputs": [],
      "stateMutability": "nonpayable",
      "type": "function"
    },
    {
      "inputs": [
        {
          "internalType": "address",
          "name": "to",
          "type": "address"
        },
        {
          "internalType": "uint256",
          "name": "externalId",
          "type": "uint256"
        }
      ],
      "name": "safeMint",
      "outputs": [],
      "stateMutability": "nonpayable",
      "type": "function"
    },
    {
      "inputs": [
        {
          "internalType": "address",
          "name": "from",
          "type": "address"
        },
        {
          "internalType": "address",
          "name": "to",
          "type": "address"
        },
        {
          "internalType": "uint256",
          "name": "tokenId",
          "type": "uint256"
        }
      ],
      "name": "safeTransferFrom",
      "outputs": [],
      "stateMutability": "nonpayable",
      "type": "function"
    },
    {
      "inputs": [
        {
          "internalType": "address",
          "name": "from",
          "type": "address"
        },
        {
          "internalType": "address",
          "name": "to",
          "type": "address"
        },
        {
          "internalType": "uint256",
          "name": "tokenId",
          "type": "uint256"
        },
        {
          "internalType": "bytes",
          "name": "data",
          "type": "bytes"
        }
      ],
      "name": "safeTransferFrom",
      "outputs": [],
      "stateMutability": "nonpayable",
      "type": "function"
    },
    {
      "inputs": [
        {
          "internalType": "address",
          "name": "operator",
          "type": "address"
        },
        {
          "internalType": "bool",
          "name": "approved",
          "type": "bool"
        }
      ],
      "name": "setApprovalForAll",
      "outputs": [],
      "stateMutability": "nonpayable",
      "type": "function"
    },
    {
      "inputs": [
        {
          "internalType": "string",
          "name": "newURI",
          "type": "string"
        }
      ],
      "name": "setBaseURI",
      "outputs": [],
      "stateMutability": "nonpayable",
      "type": "function"
    },
    {
      "inputs": [
        {
          "internalType": "bytes4",
          "name": "interfaceId",
          "type": "bytes4"
        }
      ],
      "name": "supportsInterface",
      "outputs": [
        {
          "internalType": "bool",
          "name": "",
          "type": "bool"
        }
      ],
      "stateMutability": "view",
      "type": "function"
    },
    {
      "inputs": [],
      "name": "symbol",
      "outputs": [
        {
          "internalType": "string",
          "name": "",
          "type": "string"
        }
      ],
      "stateMutability": "view",
      "type": "function"
    },
    {
      "inputs": [
        {
          "internalType": "uint256",
          "name": "tokenId",
          "type": "uint256"
        }
      ],
      "name": "tokenURI",
      "outputs": [
        {
          "internalType": "string",
          "name": "",
          "type": "string"
        }
      ],
      "stateMutability": "view",
      "type": "function"
    },
    {
      "inputs": [
        {
          "internalType": "address",
          "name": "from",
          "type": "address"
        },
        {
          "internalType": "address",
          "name": "to",
          "type": "address"
        },
        {
          "internalType": "uint256",
          "name": "tokenId",
          "type": "uint256"
        }
      ],
      "name": "transferFrom",
      "outputs": [],
      "stateMutability": "nonpayable",
      "type": "function"
    },
    {
      "inputs": [
        {
          "internalType": "address",
          "name": "newOwner",
          "type": "address"
        }
      ],
      "name": "transferOwnership",
      "outputs": [],
      "stateMutability": "nonpayable",
      "type": "function"
    },
    {
      "inputs": [
        {
          "internalType": "address",
          "name": "",
          "type": "address"
        }
      ],
      "name": "unlockedDeposits",
      "outputs": [
        {
          "internalType": "uint256",
          "name": "nftTokenId",
          "type": "uint256"
        },
        {
          "internalType": "uint256",
          "name": "btrstAmount",
          "type": "uint256"
        },
        {
          "internalType": "uint256",
          "name": "available",
          "type": "uint256"
        },
        {
          "internalType": "uint256",
          "name": "externalId",
          "type": "uint256"
        }
      ],
      "stateMutability": "view",
      "type": "function"
    },
    {
      "inputs": [
        {
          "internalType": "address",
          "name": "newImplementation",
          "type": "address"
        }
      ],
      "name": "upgradeTo",
      "outputs": [],
      "stateMutability": "nonpayable",
      "type": "function"
    },
    {
      "inputs": [
        {
          "internalType": "address",
          "name": "newImplementation",
          "type": "address"
        },
        {
          "internalType": "bytes",
          "name": "data",
          "type": "bytes"
        }
      ],
      "name": "upgradeToAndCall",
      "outputs": [],
      "stateMutability": "payable",
      "type": "function"
    },
    {
      "inputs": [
        {
          "internalType": "uint256",
          "name": "amount",
          "type": "uint256"
        },
        {
          "internalType": "uint256",
          "name": "withdrawalIndex",
          "type": "uint256"
        }
      ],
      "name": "withdrawLockedDeposit",
      "outputs": [],
      "stateMutability": "nonpayable",
      "type": "function"
    },
    {
      "inputs": [
        {
          "internalType": "uint256",
          "name": "amount",
          "type": "uint256"
        }
      ],
      "name": "withdrawUnlockedDeposit",
      "outputs": [],
      "stateMutability": "nonpayable",
      "type": "function"
    }
  ],
  "transactionHash": "0x672dc60388a5141c80915cf79d56854dc504a2fa62acf01a082df967196f4632",
  "args": [],
  "numDeployments": 1,
  "solcInputHash": "7af3e92bed738a300d9f44f10f137661",
  "bytecode": "0x60a06040523073ffffffffffffffffffffffffffffffffffffffff1660809073ffffffffffffffffffffffffffffffffffffffff168152503480156200004457600080fd5b50620000556200005b60201b60201c565b62000206565b600060019054906101000a900460ff1615620000ae576040517f08c379a0000000000000000000000000000000000000000000000000000000008152600401620000a590620001a9565b60405180910390fd5b60ff801660008054906101000a900460ff1660ff161015620001205760ff6000806101000a81548160ff021916908360ff1602179055507f7f26b83ff96e1f2b6a682f133852f6798a09c465da95921460cefb384740249860ff604051620001179190620001e9565b60405180910390a15b565b600082825260208201905092915050565b7f496e697469616c697a61626c653a20636f6e747261637420697320696e69746960008201527f616c697a696e6700000000000000000000000000000000000000000000000000602082015250565b60006200019160278362000122565b91506200019e8262000133565b604082019050919050565b60006020820190508181036000830152620001c48162000182565b9050919050565b600060ff82169050919050565b620001e381620001cb565b82525050565b6000602082019050620002006000830184620001d8565b92915050565b608051615ab06200023e60003960008181610e6a01528181610ef90152818161125d015281816112ec015261139c0152615ab06000f3fe6080604052600436106101f95760003560e01c806370a082311161010d578063a22cb465116100a0578063ca8c286b1161006f578063ca8c286b14610761578063e78f0949146107a1578063e985e9c5146107ca578063f2fde38b14610807578063f483683814610830576101f9565b8063a22cb46514610695578063b88d4fde146106be578063c40bd3ba146106e7578063c87b56dd14610724576101f9565b80638da5cb5b116100dc5780638da5cb5b146105d95780639176bf2a1461060457806395d89b4114610641578063a14481941461066c576101f9565b806370a0823114610531578063715018a61461056e5780637f920f28146105855780638406c079146105ae576101f9565b80633659cfe61161019057806352d1902d1161015f57806352d1902d1461043557806355f804b3146104605780636352211e146104895780636bbeb3dc146104c65780636c0360eb14610506576101f9565b80633659cfe61461039e57806342842e0e146103c75780634571e3a6146103f05780634f1ef28614610419576101f9565b8063095ea7b3116101cc578063095ea7b3146102e357806323b872dd1461030c5780632fc01f36146103355780633554377c1461035e576101f9565b806301ffc9a7146101fe57806306e5d9e81461023b57806306fdde031461027b578063081812fc146102a6575b600080fd5b34801561020a57600080fd5b5061022560048036038101906102209190613f46565b610859565b6040516102329190613f8e565b60405180910390f35b34801561024757600080fd5b50610262600480360381019061025d919061403d565b61093b565b604051610272949392919061408c565b60405180910390f35b34801561028757600080fd5b50610290610989565b60405161029d919061416a565b60405180910390f35b3480156102b257600080fd5b506102cd60048036038101906102c8919061418c565b610a1b565b6040516102da91906141c8565b60405180910390f35b3480156102ef57600080fd5b5061030a6004803603810190610305919061403d565b610a61565b005b34801561031857600080fd5b50610333600480360381019061032e91906141e3565b610b79565b005b34801561034157600080fd5b5061035c6004803603810190610357919061418c565b610bd9565b005b34801561036a57600080fd5b506103856004803603810190610380919061403d565b610da5565b604051610395949392919061408c565b60405180910390f35b3480156103aa57600080fd5b506103c560048036038101906103c09190614236565b610e68565b005b3480156103d357600080fd5b506103ee60048036038101906103e991906141e3565b610ff1565b005b3480156103fc57600080fd5b5061041760048036038101906104129190614398565b611011565b005b610433600480360381019061042e91906144a8565b61125b565b005b34801561044157600080fd5b5061044a611398565b604051610457919061451d565b60405180910390f35b34801561046c57600080fd5b5061048760048036038101906104829190614538565b611451565b005b34801561049557600080fd5b506104b060048036038101906104ab919061418c565b611474565b6040516104bd91906141c8565b60405180910390f35b3480156104d257600080fd5b506104ed60048036038101906104e89190614236565b611526565b6040516104fd949392919061408c565b60405180910390f35b34801561051257600080fd5b5061051b611557565b604051610528919061416a565b60405180910390f35b34801561053d57600080fd5b5061055860048036038101906105539190614236565b6115e6565b6040516105659190614581565b60405180910390f35b34801561057a57600080fd5b5061058361169e565b005b34801561059157600080fd5b506105ac60048036038101906105a7919061459c565b6116b2565b005b3480156105ba57600080fd5b506105c3611939565b6040516105d091906141c8565b60405180910390f35b3480156105e557600080fd5b506105ee611960565b6040516105fb91906141c8565b60405180910390f35b34801561061057600080fd5b5061062b60048036038101906106269190614236565b61198a565b6040516106389190614581565b60405180910390f35b34801561064d57600080fd5b50610656611aa2565b604051610663919061416a565b60405180910390f35b34801561067857600080fd5b50610693600480360381019061068e919061403d565b611b34565b005b3480156106a157600080fd5b506106bc60048036038101906106b79190614643565b611c35565b005b3480156106ca57600080fd5b506106e560048036038101906106e09190614683565b611c4b565b005b3480156106f357600080fd5b5061070e60048036038101906107099190614236565b611cad565b60405161071b9190614581565b60405180910390f35b34801561073057600080fd5b5061074b6004803603810190610746919061418c565b611cfa565b604051610758919061416a565b60405180910390f35b34801561076d57600080fd5b5061078860048036038101906107839190614236565b611d62565b60405161079894939291906147c4565b60405180910390f35b3480156107ad57600080fd5b506107c860048036038101906107c39190614825565b61202b565b005b3480156107d657600080fd5b506107f160048036038101906107ec919061488c565b612370565b6040516107fe9190613f8e565b60405180910390f35b34801561081357600080fd5b5061082e60048036038101906108299190614236565b612404565b005b34801561083c57600080fd5b50610857600480360381019061085291906148cc565b612488565b005b60007f80ac58cd000000000000000000000000000000000000000000000000000000007bffffffffffffffffffffffffffffffffffffffffffffffffffffffff1916827bffffffffffffffffffffffffffffffffffffffffffffffffffffffff1916148061092457507f5b5e139f000000000000000000000000000000000000000000000000000000007bffffffffffffffffffffffffffffffffffffffffffffffffffffffff1916827bffffffffffffffffffffffffffffffffffffffffffffffffffffffff1916145b8061093457506109338261296a565b5b9050919050565b610132602052816000526040600020818154811061095857600080fd5b9060005260206000209060040201600091509150508060000154908060010154908060020154908060030154905084565b6060606580546109989061493b565b80601f01602080910402602001604051908101604052809291908181526020018280546109c49061493b565b8015610a115780601f106109e657610100808354040283529160200191610a11565b820191906000526020600020905b8154815290600101906020018083116109f457829003601f168201915b5050505050905090565b6000610a26826129d4565b6069600083815260200190815260200160002060009054906101000a900473ffffffffffffffffffffffffffffffffffffffff169050919050565b6000610a6c82611474565b90508073ffffffffffffffffffffffffffffffffffffffff168373ffffffffffffffffffffffffffffffffffffffff161415610add576040517f08c379a0000000000000000000000000000000000000000000000000000000008152600401610ad4906149df565b60405180910390fd5b8073ffffffffffffffffffffffffffffffffffffffff16610afc612a1f565b73ffffffffffffffffffffffffffffffffffffffff161480610b2b5750610b2a81610b25612a1f565b612370565b5b610b6a576040517f08c379a0000000000000000000000000000000000000000000000000000000008152600401610b6190614a71565b60405180910390fd5b610b748383612a27565b505050565b610b8a610b84612a1f565b82612ae0565b610bc9576040517f08c379a0000000000000000000000000000000000000000000000000000000008152600401610bc090614b03565b60405180910390fd5b610bd4838383612b75565b505050565b61013160003373ffffffffffffffffffffffffffffffffffffffff1673ffffffffffffffffffffffffffffffffffffffff16815260200190815260200160002060010154811115610c56576040517ff4d678b800000000000000000000000000000000000000000000000000000000815260040160405180910390fd5b8061013160003373ffffffffffffffffffffffffffffffffffffffff1673ffffffffffffffffffffffffffffffffffffffff1681526020019081526020016000206001016000828254610ca99190614b52565b9250508190555061013060009054906101000a900473ffffffffffffffffffffffffffffffffffffffff1673ffffffffffffffffffffffffffffffffffffffff166323b872dd3033846040518463ffffffff1660e01b8152600401610d1093929190614b86565b6020604051808303816000875af1158015610d2f573d6000803e3d6000fd5b505050506040513d601f19601f82011682018060405250810190610d539190614bd2565b503373ffffffffffffffffffffffffffffffffffffffff167fa3a81f23fd2c0385ca7d57bfd5744a57c7085899a6904271df40dfeb51857ab282604051610d9a9190614581565b60405180910390a250565b600080600080600061013260008873ffffffffffffffffffffffffffffffffffffffff1673ffffffffffffffffffffffffffffffffffffffff1681526020019081526020016000208681548110610dff57610dfe614bff565b5b90600052602060002090600402016040518060800160405290816000820154815260200160018201548152602001600282015481526020016003820154815250509050806000015181602001518260400151836060015194509450945094505092959194509250565b7f000000000000000000000000000000000000000000000000000000000000000073ffffffffffffffffffffffffffffffffffffffff163073ffffffffffffffffffffffffffffffffffffffff161415610ef7576040517f08c379a0000000000000000000000000000000000000000000000000000000008152600401610eee90614ca0565b60405180910390fd5b7f000000000000000000000000000000000000000000000000000000000000000073ffffffffffffffffffffffffffffffffffffffff16610f36612ddc565b73ffffffffffffffffffffffffffffffffffffffff1614610f8c576040517f08c379a0000000000000000000000000000000000000000000000000000000008152600401610f8390614d32565b60405180910390fd5b610f9581612e33565b610fee81600067ffffffffffffffff811115610fb457610fb361426d565b5b6040519080825280601f01601f191660200182016040528015610fe65781602001600182028036833780820191505090505b506000612e3e565b50565b61100c83838360405180602001604052806000815250611c4b565b505050565b60008060019054906101000a900460ff161590508080156110425750600160008054906101000a900460ff1660ff16105b8061106f575061105130612fac565b15801561106e5750600160008054906101000a900460ff1660ff16145b5b6110ae576040517f08c379a00000000000000000000000000000000000000000000000000000000081526004016110a590614dc4565b60405180910390fd5b60016000806101000a81548160ff021916908360ff16021790555080156110eb576001600060016101000a81548160ff0219169083151502179055505b61115f6040518060400160405280601981526020017f427261696e7472757374204d656d62657273686970204e4654000000000000008152506040518060400160405280600481526020017f424e465400000000000000000000000000000000000000000000000000000000815250612fcf565b61116761302c565b61116f613085565b8361012e60006101000a81548173ffffffffffffffffffffffffffffffffffffffff021916908373ffffffffffffffffffffffffffffffffffffffff1602179055508261013060006101000a81548173ffffffffffffffffffffffffffffffffffffffff021916908373ffffffffffffffffffffffffffffffffffffffff1602179055506111fc82611451565b80156112555760008060016101000a81548160ff0219169083151502179055507f7f26b83ff96e1f2b6a682f133852f6798a09c465da95921460cefb3847402498600160405161124c9190614e36565b60405180910390a15b50505050565b7f000000000000000000000000000000000000000000000000000000000000000073ffffffffffffffffffffffffffffffffffffffff163073ffffffffffffffffffffffffffffffffffffffff1614156112ea576040517f08c379a00000000000000000000000000000000000000000000000000000000081526004016112e190614ca0565b60405180910390fd5b7f000000000000000000000000000000000000000000000000000000000000000073ffffffffffffffffffffffffffffffffffffffff16611329612ddc565b73ffffffffffffffffffffffffffffffffffffffff161461137f576040517f08c379a000000000000000000000000000000000000000000000000000000000815260040161137690614d32565b60405180910390fd5b61138882612e33565b61139482826001612e3e565b5050565b60007f000000000000000000000000000000000000000000000000000000000000000073ffffffffffffffffffffffffffffffffffffffff163073ffffffffffffffffffffffffffffffffffffffff1614611428576040517f08c379a000000000000000000000000000000000000000000000000000000000815260040161141f90614ec3565b60405180910390fd5b7f360894a13ba1a3210667c828492db98dca3e2076cc3735a920a3ca505d382bbc60001b905090565b6114596130d6565b8061012f9080519060200190611470929190613e37565b5050565b6000806067600084815260200190815260200160002060009054906101000a900473ffffffffffffffffffffffffffffffffffffffff169050600073ffffffffffffffffffffffffffffffffffffffff168173ffffffffffffffffffffffffffffffffffffffff16141561151d576040517f08c379a000000000000000000000000000000000000000000000000000000000815260040161151490614f2f565b60405180910390fd5b80915050919050565b6101316020528060005260406000206000915090508060000154908060010154908060020154908060030154905084565b61012f80546115659061493b565b80601f01602080910402602001604051908101604052809291908181526020018280546115919061493b565b80156115de5780601f106115b3576101008083540402835291602001916115de565b820191906000526020600020905b8154815290600101906020018083116115c157829003601f168201915b505050505081565b60008073ffffffffffffffffffffffffffffffffffffffff168273ffffffffffffffffffffffffffffffffffffffff161415611657576040517f08c379a000000000000000000000000000000000000000000000000000000000815260040161164e90614fc1565b60405180910390fd5b606860008373ffffffffffffffffffffffffffffffffffffffff1673ffffffffffffffffffffffffffffffffffffffff168152602001908152602001600020549050919050565b6116a66130d6565b6116b06000613154565b565b60006116bd846115e6565b116116ff57826040517ffbff01980000000000000000000000000000000000000000000000000000000081526004016116f691906141c8565b60405180910390fd5b8273ffffffffffffffffffffffffffffffffffffffff1661171f85611474565b73ffffffffffffffffffffffffffffffffffffffff16146117795783836040517f94dccc1a000000000000000000000000000000000000000000000000000000008152600401611770929190614fe1565b60405180910390fd5b60004283611787919061500a565b905061013260008573ffffffffffffffffffffffffffffffffffffffff1673ffffffffffffffffffffffffffffffffffffffff168152602001908152602001600020604051806080016040528087815260200188815260200183815260200184815250908060018154018082558091505060019003906000526020600020906004020160009091909190915060008201518160000155602082015181600101556040820151816002015560608201518160030155505061013060009054906101000a900473ffffffffffffffffffffffffffffffffffffffff1673ffffffffffffffffffffffffffffffffffffffff166323b872dd3330896040518463ffffffff1660e01b815260040161189d93929190614b86565b6020604051808303816000875af11580156118bc573d6000803e3d6000fd5b505050506040513d601f19601f820116820180604052508101906118e09190614bd2565b508373ffffffffffffffffffffffffffffffffffffffff167f56f55b38369be60acc5cbec23e3d45c664997667c08f90740aca0deffc749ba08784604051611929929190615060565b60405180910390a2505050505050565b61012e60009054906101000a900473ffffffffffffffffffffffffffffffffffffffff1681565b6000609760009054906101000a900473ffffffffffffffffffffffffffffffffffffffff16905090565b60008061013260008473ffffffffffffffffffffffffffffffffffffffff1673ffffffffffffffffffffffffffffffffffffffff16815260200190815260200160002080549050905060005b81811015611a9b57600061013260008673ffffffffffffffffffffffffffffffffffffffff1673ffffffffffffffffffffffffffffffffffffffff1681526020019081526020016000208281548110611a3257611a31614bff565b5b90600052602060002090600402016040518060800160405290816000820154815260200160018201548152602001600282015481526020016003820154815250509050806020015184611a85919061500a565b9350508080611a9390615089565b9150506119d6565b5050919050565b606060668054611ab19061493b565b80601f0160208091040260200160405190810160405280929190818152602001828054611add9061493b565b8015611b2a5780601f10611aff57610100808354040283529160200191611b2a565b820191906000526020600020905b815481529060010190602001808311611b0d57829003601f168201915b5050505050905090565b61012e60009054906101000a900473ffffffffffffffffffffffffffffffffffffffff1673ffffffffffffffffffffffffffffffffffffffff163373ffffffffffffffffffffffffffffffffffffffff1614611bbc576040517f81316de100000000000000000000000000000000000000000000000000000000815260040160405180910390fd5b6000611bc961012d61321a565b9050611bd661012d613228565b611be0838261323e565b8273ffffffffffffffffffffffffffffffffffffffff167ffc612aad4e70fb3e1d4832d8c65f92e4024aa87f809d131267a79bceee757f338284604051611c28929190615060565b60405180910390a2505050565b611c47611c40612a1f565b838361325c565b5050565b611c5c611c56612a1f565b83612ae0565b611c9b576040517f08c379a0000000000000000000000000000000000000000000000000000000008152600401611c9290614b03565b60405180910390fd5b611ca7848484846133c9565b50505050565b600061013160008373ffffffffffffffffffffffffffffffffffffffff1673ffffffffffffffffffffffffffffffffffffffff168152602001908152602001600020600101549050919050565b6060611d05826129d4565b6000611d0f613425565b90506000815111611d2f5760405180602001604052806000815250611d5a565b80611d39846134b8565b604051602001611d4a92919061510e565b6040516020818303038152906040525b915050919050565b606080606080600061013260008773ffffffffffffffffffffffffffffffffffffffff1673ffffffffffffffffffffffffffffffffffffffff1681526020019081526020016000208054905090508067ffffffffffffffff811115611dca57611dc961426d565b5b604051908082528060200260200182016040528015611df85781602001602082028036833780820191505090505b5094508067ffffffffffffffff811115611e1557611e1461426d565b5b604051908082528060200260200182016040528015611e435781602001602082028036833780820191505090505b5093508067ffffffffffffffff811115611e6057611e5f61426d565b5b604051908082528060200260200182016040528015611e8e5781602001602082028036833780820191505090505b5092508067ffffffffffffffff811115611eab57611eaa61426d565b5b604051908082528060200260200182016040528015611ed95781602001602082028036833780820191505090505b50915060005b8181101561202257600061013260008973ffffffffffffffffffffffffffffffffffffffff1673ffffffffffffffffffffffffffffffffffffffff1681526020019081526020016000208281548110611f3b57611f3a614bff565b5b906000526020600020906004020160405180608001604052908160008201548152602001600182015481526020016002820154815260200160038201548152505090508060000151878381518110611f9657611f95614bff565b5b6020026020010181815250508060200151868381518110611fba57611fb9614bff565b5b6020026020010181815250508060400151858381518110611fde57611fdd614bff565b5b602002602001018181525050806060015184838151811061200257612001614bff565b5b60200260200101818152505050808061201a90615089565b915050611edf565b50509193509193565b6000612036336115e6565b1161207857816040517ffbff019800000000000000000000000000000000000000000000000000000000815260040161206f91906141c8565b60405180910390fd5b8173ffffffffffffffffffffffffffffffffffffffff1661209884611474565b73ffffffffffffffffffffffffffffffffffffffff16146120f25782826040517f94dccc1a0000000000000000000000000000000000000000000000000000000081526004016120e9929190614fe1565b60405180910390fd5b600061013160008473ffffffffffffffffffffffffffffffffffffffff1673ffffffffffffffffffffffffffffffffffffffff168152602001908152602001600020600001541415612187578261013160008473ffffffffffffffffffffffffffffffffffffffff1673ffffffffffffffffffffffffffffffffffffffff168152602001908152602001600020600001819055505b600061013160008473ffffffffffffffffffffffffffffffffffffffff1673ffffffffffffffffffffffffffffffffffffffff16815260200190815260200160002060030154141561221c578061013160008473ffffffffffffffffffffffffffffffffffffffff1673ffffffffffffffffffffffffffffffffffffffff168152602001908152602001600020600301819055505b8361013160008473ffffffffffffffffffffffffffffffffffffffff1673ffffffffffffffffffffffffffffffffffffffff168152602001908152602001600020600101600082825461226f919061500a565b9250508190555061013060009054906101000a900473ffffffffffffffffffffffffffffffffffffffff1673ffffffffffffffffffffffffffffffffffffffff166323b872dd8330876040518463ffffffff1660e01b81526004016122d693929190614b86565b6020604051808303816000875af11580156122f5573d6000803e3d6000fd5b505050506040513d601f19601f820116820180604052508101906123199190614bd2565b508173ffffffffffffffffffffffffffffffffffffffff167f73a19dd210f1a7f902193214c0ee91dd35ee5b4d920cba8d519eca65a7b488ca8583604051612362929190615060565b60405180910390a250505050565b6000606a60008473ffffffffffffffffffffffffffffffffffffffff1673ffffffffffffffffffffffffffffffffffffffff16815260200190815260200160002060008373ffffffffffffffffffffffffffffffffffffffff1673ffffffffffffffffffffffffffffffffffffffff16815260200190815260200160002060009054906101000a900460ff16905092915050565b61240c6130d6565b600073ffffffffffffffffffffffffffffffffffffffff168173ffffffffffffffffffffffffffffffffffffffff16141561247c576040517f08c379a0000000000000000000000000000000000000000000000000000000008152600401612473906151a4565b60405180910390fd5b61248581613154565b50565b61013260003373ffffffffffffffffffffffffffffffffffffffff1673ffffffffffffffffffffffffffffffffffffffff16815260200190815260200160002081815481106124da576124d9614bff565b5b906000526020600020906004020160020154421015612525576040517fc0e9274d00000000000000000000000000000000000000000000000000000000815260040160405180910390fd5b61013260003373ffffffffffffffffffffffffffffffffffffffff1673ffffffffffffffffffffffffffffffffffffffff168152602001908152602001600020818154811061257757612576614bff565b5b9060005260206000209060040201600101548211156125c2576040517ff4d678b800000000000000000000000000000000000000000000000000000000815260040160405180910390fd5b8161013260003373ffffffffffffffffffffffffffffffffffffffff1673ffffffffffffffffffffffffffffffffffffffff168152602001908152602001600020828154811061261557612614614bff565b5b906000526020600020906004020160010160008282546126359190614b52565b92505081905550600061013260003373ffffffffffffffffffffffffffffffffffffffff1673ffffffffffffffffffffffffffffffffffffffff168152602001908152602001600020805490509050600061013260003373ffffffffffffffffffffffffffffffffffffffff1673ffffffffffffffffffffffffffffffffffffffff16815260200190815260200160002083815481106126d8576126d7614bff565b5b90600052602060002090600402016001015414156128715761013260003373ffffffffffffffffffffffffffffffffffffffff1673ffffffffffffffffffffffffffffffffffffffff16815260200190815260200160002060018261273d9190614b52565b8154811061274e5761274d614bff565b5b906000526020600020906004020161013260003373ffffffffffffffffffffffffffffffffffffffff1673ffffffffffffffffffffffffffffffffffffffff16815260200190815260200160002083815481106127ae576127ad614bff565b5b90600052602060002090600402016000820154816000015560018201548160010155600282015481600201556003820154816003015590505061013260003373ffffffffffffffffffffffffffffffffffffffff1673ffffffffffffffffffffffffffffffffffffffff168152602001908152602001600020805480612837576128366151c4565b5b6001900381819060005260206000209060040201600080820160009055600182016000905560028201600090556003820160009055505090555b61013060009054906101000a900473ffffffffffffffffffffffffffffffffffffffff1673ffffffffffffffffffffffffffffffffffffffff166323b872dd3033866040518463ffffffff1660e01b81526004016128d193929190614b86565b6020604051808303816000875af11580156128f0573d6000803e3d6000fd5b505050506040513d601f19601f820116820180604052508101906129149190614bd2565b503373ffffffffffffffffffffffffffffffffffffffff167fd6ce4c672ad79c31e601d74634b2cf319118a6cce6c0713017425caebb3a81eb848460405161295d929190615060565b60405180910390a2505050565b60007f01ffc9a7000000000000000000000000000000000000000000000000000000007bffffffffffffffffffffffffffffffffffffffffffffffffffffffff1916827bffffffffffffffffffffffffffffffffffffffffffffffffffffffff1916149050919050565b6129dd81613619565b612a1c576040517f08c379a0000000000000000000000000000000000000000000000000000000008152600401612a1390614f2f565b60405180910390fd5b50565b600033905090565b816069600083815260200190815260200160002060006101000a81548173ffffffffffffffffffffffffffffffffffffffff021916908373ffffffffffffffffffffffffffffffffffffffff160217905550808273ffffffffffffffffffffffffffffffffffffffff16612a9a83611474565b73ffffffffffffffffffffffffffffffffffffffff167f8c5be1e5ebec7d5bd14f71427d1e84f3dd0314c0f7b2291e5b200ac8c7c3b92560405160405180910390a45050565b600080612aec83611474565b90508073ffffffffffffffffffffffffffffffffffffffff168473ffffffffffffffffffffffffffffffffffffffff161480612b2e5750612b2d8185612370565b5b80612b6c57508373ffffffffffffffffffffffffffffffffffffffff16612b5484610a1b565b73ffffffffffffffffffffffffffffffffffffffff16145b91505092915050565b8273ffffffffffffffffffffffffffffffffffffffff16612b9582611474565b73ffffffffffffffffffffffffffffffffffffffff1614612beb576040517f08c379a0000000000000000000000000000000000000000000000000000000008152600401612be290615265565b60405180910390fd5b600073ffffffffffffffffffffffffffffffffffffffff168273ffffffffffffffffffffffffffffffffffffffff161415612c5b576040517f08c379a0000000000000000000000000000000000000000000000000000000008152600401612c52906152f7565b60405180910390fd5b612c66838383613685565b612c71600082612a27565b6001606860008573ffffffffffffffffffffffffffffffffffffffff1673ffffffffffffffffffffffffffffffffffffffff1681526020019081526020016000206000828254612cc19190614b52565b925050819055506001606860008473ffffffffffffffffffffffffffffffffffffffff1673ffffffffffffffffffffffffffffffffffffffff1681526020019081526020016000206000828254612d18919061500a565b92505081905550816067600083815260200190815260200160002060006101000a81548173ffffffffffffffffffffffffffffffffffffffff021916908373ffffffffffffffffffffffffffffffffffffffff160217905550808273ffffffffffffffffffffffffffffffffffffffff168473ffffffffffffffffffffffffffffffffffffffff167fddf252ad1be2c89b69c2b068fc378daa952ba7f163c4a11628f55a4df523b3ef60405160405180910390a4612dd78383836136fb565b505050565b6000612e0a7f360894a13ba1a3210667c828492db98dca3e2076cc3735a920a3ca505d382bbc60001b613700565b60000160009054906101000a900473ffffffffffffffffffffffffffffffffffffffff16905090565b612e3b6130d6565b50565b612e6a7f4910fdfa16fed3260ed0e7147f7cc6da11a60208b5b9406d12a635614ffd914360001b61370a565b60000160009054906101000a900460ff1615612e8e57612e8983613714565b612fa7565b8273ffffffffffffffffffffffffffffffffffffffff166352d1902d6040518163ffffffff1660e01b8152600401602060405180830381865afa925050508015612ef657506040513d601f19601f82011682018060405250810190612ef39190615343565b60015b612f35576040517f08c379a0000000000000000000000000000000000000000000000000000000008152600401612f2c906153e2565b60405180910390fd5b7f360894a13ba1a3210667c828492db98dca3e2076cc3735a920a3ca505d382bbc60001b8114612f9a576040517f08c379a0000000000000000000000000000000000000000000000000000000008152600401612f9190615474565b60405180910390fd5b50612fa68383836137cd565b5b505050565b6000808273ffffffffffffffffffffffffffffffffffffffff163b119050919050565b600060019054906101000a900460ff1661301e576040517f08c379a000000000000000000000000000000000000000000000000000000000815260040161301590615506565b60405180910390fd5b61302882826137f9565b5050565b600060019054906101000a900460ff1661307b576040517f08c379a000000000000000000000000000000000000000000000000000000000815260040161307290615506565b60405180910390fd5b61308361387a565b565b600060019054906101000a900460ff166130d4576040517f08c379a00000000000000000000000000000000000000000000000000000000081526004016130cb90615506565b60405180910390fd5b565b6130de612a1f565b73ffffffffffffffffffffffffffffffffffffffff166130fc611960565b73ffffffffffffffffffffffffffffffffffffffff1614613152576040517f08c379a000000000000000000000000000000000000000000000000000000000815260040161314990615572565b60405180910390fd5b565b6000609760009054906101000a900473ffffffffffffffffffffffffffffffffffffffff16905081609760006101000a81548173ffffffffffffffffffffffffffffffffffffffff021916908373ffffffffffffffffffffffffffffffffffffffff1602179055508173ffffffffffffffffffffffffffffffffffffffff168173ffffffffffffffffffffffffffffffffffffffff167f8be0079c531659141344cd1fd0a4f28419497f9722a3daafe3b4186f6b6457e060405160405180910390a35050565b600081600001549050919050565b6001816000016000828254019250508190555050565b6132588282604051806020016040528060008152506138db565b5050565b8173ffffffffffffffffffffffffffffffffffffffff168373ffffffffffffffffffffffffffffffffffffffff1614156132cb576040517f08c379a00000000000000000000000000000000000000000000000000000000081526004016132c2906155de565b60405180910390fd5b80606a60008573ffffffffffffffffffffffffffffffffffffffff1673ffffffffffffffffffffffffffffffffffffffff16815260200190815260200160002060008473ffffffffffffffffffffffffffffffffffffffff1673ffffffffffffffffffffffffffffffffffffffff16815260200190815260200160002060006101000a81548160ff0219169083151502179055508173ffffffffffffffffffffffffffffffffffffffff168373ffffffffffffffffffffffffffffffffffffffff167f17307eab39ab6107e8899845ad3d59bd9653f200f220920489ca2b5937696c31836040516133bc9190613f8e565b60405180910390a3505050565b6133d4848484612b75565b6133e084848484613936565b61341f576040517f08c379a000000000000000000000000000000000000000000000000000000000815260040161341690615670565b60405180910390fd5b50505050565b606061012f80546134359061493b565b80601f01602080910402602001604051908101604052809291908181526020018280546134619061493b565b80156134ae5780601f10613483576101008083540402835291602001916134ae565b820191906000526020600020905b81548152906001019060200180831161349157829003601f168201915b5050505050905090565b60606000821415613500576040518060400160405280600181526020017f30000000000000000000000000000000000000000000000000000000000000008152509050613614565b600082905060005b6000821461353257808061351b90615089565b915050600a8261352b91906156bf565b9150613508565b60008167ffffffffffffffff81111561354e5761354d61426d565b5b6040519080825280601f01601f1916602001820160405280156135805781602001600182028036833780820191505090505b5090505b6000851461360d576001826135999190614b52565b9150600a856135a891906156f0565b60306135b4919061500a565b60f81b8183815181106135ca576135c9614bff565b5b60200101907effffffffffffffffffffffffffffffffffffffffffffffffffffffffffffff1916908160001a905350600a8561360691906156bf565b9450613584565b8093505050505b919050565b60008073ffffffffffffffffffffffffffffffffffffffff166067600084815260200190815260200160002060009054906101000a900473ffffffffffffffffffffffffffffffffffffffff1673ffffffffffffffffffffffffffffffffffffffff1614159050919050565b600073ffffffffffffffffffffffffffffffffffffffff168373ffffffffffffffffffffffffffffffffffffffff16146136eb576040517f8cd22d1900000000000000000000000000000000000000000000000000000000815260040160405180910390fd5b6136f6838383613abe565b505050565b505050565b6000819050919050565b6000819050919050565b61371d81612fac565b61375c576040517f08c379a000000000000000000000000000000000000000000000000000000000815260040161375390615793565b60405180910390fd5b806137897f360894a13ba1a3210667c828492db98dca3e2076cc3735a920a3ca505d382bbc60001b613700565b60000160006101000a81548173ffffffffffffffffffffffffffffffffffffffff021916908373ffffffffffffffffffffffffffffffffffffffff16021790555050565b6137d683613ac3565b6000825111806137e35750805b156137f4576137f28383613b12565b505b505050565b600060019054906101000a900460ff16613848576040517f08c379a000000000000000000000000000000000000000000000000000000000815260040161383f90615506565b60405180910390fd5b816065908051906020019061385e929190613e37565b508060669080519060200190613875929190613e37565b505050565b600060019054906101000a900460ff166138c9576040517f08c379a00000000000000000000000000000000000000000000000000000000081526004016138c090615506565b60405180910390fd5b6138d96138d4612a1f565b613154565b565b6138e58383613bf6565b6138f26000848484613936565b613931576040517f08c379a000000000000000000000000000000000000000000000000000000000815260040161392890615670565b60405180910390fd5b505050565b60006139578473ffffffffffffffffffffffffffffffffffffffff16612fac565b15613ab1578373ffffffffffffffffffffffffffffffffffffffff1663150b7a02613980612a1f565b8786866040518563ffffffff1660e01b81526004016139a29493929190615808565b6020604051808303816000875af19250505080156139de57506040513d601f19601f820116820180604052508101906139db9190615869565b60015b613a61573d8060008114613a0e576040519150601f19603f3d011682016040523d82523d6000602084013e613a13565b606091505b50600081511415613a59576040517f08c379a0000000000000000000000000000000000000000000000000000000008152600401613a5090615670565b60405180910390fd5b805181602001fd5b63150b7a0260e01b7bffffffffffffffffffffffffffffffffffffffffffffffffffffffff1916817bffffffffffffffffffffffffffffffffffffffffffffffffffffffff191614915050613ab6565b600190505b949350505050565b505050565b613acc81613714565b8073ffffffffffffffffffffffffffffffffffffffff167fbc7cd75a20ee27fd9adebab32041f755214dbc6bffa90cc0225b39da2e5c2d3b60405160405180910390a250565b6060613b1d83612fac565b613b5c576040517f08c379a0000000000000000000000000000000000000000000000000000000008152600401613b5390615908565b60405180910390fd5b6000808473ffffffffffffffffffffffffffffffffffffffff1684604051613b849190615964565b600060405180830381855af49150503d8060008114613bbf576040519150601f19603f3d011682016040523d82523d6000602084013e613bc4565b606091505b5091509150613bec8282604051806060016040528060278152602001615a5460279139613dd0565b9250505092915050565b600073ffffffffffffffffffffffffffffffffffffffff168273ffffffffffffffffffffffffffffffffffffffff161415613c66576040517f08c379a0000000000000000000000000000000000000000000000000000000008152600401613c5d906159c7565b60405180910390fd5b613c6f81613619565b15613caf576040517f08c379a0000000000000000000000000000000000000000000000000000000008152600401613ca690615a33565b60405180910390fd5b613cbb60008383613685565b6001606860008473ffffffffffffffffffffffffffffffffffffffff1673ffffffffffffffffffffffffffffffffffffffff1681526020019081526020016000206000828254613d0b919061500a565b92505081905550816067600083815260200190815260200160002060006101000a81548173ffffffffffffffffffffffffffffffffffffffff021916908373ffffffffffffffffffffffffffffffffffffffff160217905550808273ffffffffffffffffffffffffffffffffffffffff16600073ffffffffffffffffffffffffffffffffffffffff167fddf252ad1be2c89b69c2b068fc378daa952ba7f163c4a11628f55a4df523b3ef60405160405180910390a4613dcc600083836136fb565b5050565b60608315613de057829050613e30565b600083511115613df35782518084602001fd5b816040517f08c379a0000000000000000000000000000000000000000000000000000000008152600401613e27919061416a565b60405180910390fd5b9392505050565b828054613e439061493b565b90600052602060002090601f016020900481019282613e655760008555613eac565b82601f10613e7e57805160ff1916838001178555613eac565b82800160010185558215613eac579182015b82811115613eab578251825591602001919060010190613e90565b5b509050613eb99190613ebd565b5090565b5b80821115613ed6576000816000905550600101613ebe565b5090565b6000604051905090565b600080fd5b600080fd5b60007fffffffff0000000000000000000000000000000000000000000000000000000082169050919050565b613f2381613eee565b8114613f2e57600080fd5b50565b600081359050613f4081613f1a565b92915050565b600060208284031215613f5c57613f5b613ee4565b5b6000613f6a84828501613f31565b91505092915050565b60008115159050919050565b613f8881613f73565b82525050565b6000602082019050613fa36000830184613f7f565b92915050565b600073ffffffffffffffffffffffffffffffffffffffff82169050919050565b6000613fd482613fa9565b9050919050565b613fe481613fc9565b8114613fef57600080fd5b50565b60008135905061400181613fdb565b92915050565b6000819050919050565b61401a81614007565b811461402557600080fd5b50565b60008135905061403781614011565b92915050565b6000806040838503121561405457614053613ee4565b5b600061406285828601613ff2565b925050602061407385828601614028565b9150509250929050565b61408681614007565b82525050565b60006080820190506140a1600083018761407d565b6140ae602083018661407d565b6140bb604083018561407d565b6140c8606083018461407d565b95945050505050565b600081519050919050565b600082825260208201905092915050565b60005b8381101561410b5780820151818401526020810190506140f0565b8381111561411a576000848401525b50505050565b6000601f19601f8301169050919050565b600061413c826140d1565b61414681856140dc565b93506141568185602086016140ed565b61415f81614120565b840191505092915050565b600060208201905081810360008301526141848184614131565b905092915050565b6000602082840312156141a2576141a1613ee4565b5b60006141b084828501614028565b91505092915050565b6141c281613fc9565b82525050565b60006020820190506141dd60008301846141b9565b92915050565b6000806000606084860312156141fc576141fb613ee4565b5b600061420a86828701613ff2565b935050602061421b86828701613ff2565b925050604061422c86828701614028565b9150509250925092565b60006020828403121561424c5761424b613ee4565b5b600061425a84828501613ff2565b91505092915050565b600080fd5b600080fd5b7f4e487b7100000000000000000000000000000000000000000000000000000000600052604160045260246000fd5b6142a582614120565b810181811067ffffffffffffffff821117156142c4576142c361426d565b5b80604052505050565b60006142d7613eda565b90506142e3828261429c565b919050565b600067ffffffffffffffff8211156143035761430261426d565b5b61430c82614120565b9050602081019050919050565b82818337600083830152505050565b600061433b614336846142e8565b6142cd565b90508281526020810184848401111561435757614356614268565b5b614362848285614319565b509392505050565b600082601f83011261437f5761437e614263565b5b813561438f848260208601614328565b91505092915050565b6000806000606084860312156143b1576143b0613ee4565b5b60006143bf86828701613ff2565b93505060206143d086828701613ff2565b925050604084013567ffffffffffffffff8111156143f1576143f0613ee9565b5b6143fd8682870161436a565b9150509250925092565b600067ffffffffffffffff8211156144225761442161426d565b5b61442b82614120565b9050602081019050919050565b600061444b61444684614407565b6142cd565b90508281526020810184848401111561446757614466614268565b5b614472848285614319565b509392505050565b600082601f83011261448f5761448e614263565b5b813561449f848260208601614438565b91505092915050565b600080604083850312156144bf576144be613ee4565b5b60006144cd85828601613ff2565b925050602083013567ffffffffffffffff8111156144ee576144ed613ee9565b5b6144fa8582860161447a565b9150509250929050565b6000819050919050565b61451781614504565b82525050565b6000602082019050614532600083018461450e565b92915050565b60006020828403121561454e5761454d613ee4565b5b600082013567ffffffffffffffff81111561456c5761456b613ee9565b5b6145788482850161436a565b91505092915050565b6000602082019050614596600083018461407d565b92915050565b600080600080600060a086880312156145b8576145b7613ee4565b5b60006145c688828901614028565b95505060206145d788828901614028565b94505060406145e888828901613ff2565b93505060606145f988828901614028565b925050608061460a88828901614028565b9150509295509295909350565b61462081613f73565b811461462b57600080fd5b50565b60008135905061463d81614617565b92915050565b6000806040838503121561465a57614659613ee4565b5b600061466885828601613ff2565b92505060206146798582860161462e565b9150509250929050565b6000806000806080858703121561469d5761469c613ee4565b5b60006146ab87828801613ff2565b94505060206146bc87828801613ff2565b93505060406146cd87828801614028565b925050606085013567ffffffffffffffff8111156146ee576146ed613ee9565b5b6146fa8782880161447a565b91505092959194509250565b600081519050919050565b600082825260208201905092915050565b6000819050602082019050919050565b61473b81614007565b82525050565b600061474d8383614732565b60208301905092915050565b6000602082019050919050565b600061477182614706565b61477b8185614711565b935061478683614722565b8060005b838110156147b757815161479e8882614741565b97506147a983614759565b92505060018101905061478a565b5085935050505092915050565b600060808201905081810360008301526147de8187614766565b905081810360208301526147f28186614766565b905081810360408301526148068185614766565b9050818103606083015261481a8184614766565b905095945050505050565b6000806000806080858703121561483f5761483e613ee4565b5b600061484d87828801614028565b945050602061485e87828801614028565b935050604061486f87828801613ff2565b925050606061488087828801614028565b91505092959194509250565b600080604083850312156148a3576148a2613ee4565b5b60006148b185828601613ff2565b92505060206148c285828601613ff2565b9150509250929050565b600080604083850312156148e3576148e2613ee4565b5b60006148f185828601614028565b925050602061490285828601614028565b9150509250929050565b7f4e487b7100000000000000000000000000000000000000000000000000000000600052602260045260246000fd5b6000600282049050600182168061495357607f821691505b602082108114156149675761496661490c565b5b50919050565b7f4552433732313a20617070726f76616c20746f2063757272656e74206f776e6560008201527f7200000000000000000000000000000000000000000000000000000000000000602082015250565b60006149c96021836140dc565b91506149d48261496d565b604082019050919050565b600060208201905081810360008301526149f8816149bc565b9050919050565b7f4552433732313a20617070726f76652063616c6c6572206973206e6f7420746f60008201527f6b656e206f776e6572206e6f7220617070726f76656420666f7220616c6c0000602082015250565b6000614a5b603e836140dc565b9150614a66826149ff565b604082019050919050565b60006020820190508181036000830152614a8a81614a4e565b9050919050565b7f4552433732313a2063616c6c6572206973206e6f7420746f6b656e206f776e6560008201527f72206e6f7220617070726f766564000000000000000000000000000000000000602082015250565b6000614aed602e836140dc565b9150614af882614a91565b604082019050919050565b60006020820190508181036000830152614b1c81614ae0565b9050919050565b7f4e487b7100000000000000000000000000000000000000000000000000000000600052601160045260246000fd5b6000614b5d82614007565b9150614b6883614007565b925082821015614b7b57614b7a614b23565b5b828203905092915050565b6000606082019050614b9b60008301866141b9565b614ba860208301856141b9565b614bb5604083018461407d565b949350505050565b600081519050614bcc81614617565b92915050565b600060208284031215614be857614be7613ee4565b5b6000614bf684828501614bbd565b91505092915050565b7f4e487b7100000000000000000000000000000000000000000000000000000000600052603260045260246000fd5b7f46756e6374696f6e206d7573742062652063616c6c6564207468726f7567682060008201527f64656c656761746563616c6c0000000000000000000000000000000000000000602082015250565b6000614c8a602c836140dc565b9150614c9582614c2e565b604082019050919050565b60006020820190508181036000830152614cb981614c7d565b9050919050565b7f46756e6374696f6e206d7573742062652063616c6c6564207468726f7567682060008201527f6163746976652070726f78790000000000000000000000000000000000000000602082015250565b6000614d1c602c836140dc565b9150614d2782614cc0565b604082019050919050565b60006020820190508181036000830152614d4b81614d0f565b9050919050565b7f496e697469616c697a61626c653a20636f6e747261637420697320616c72656160008201527f647920696e697469616c697a6564000000000000000000000000000000000000602082015250565b6000614dae602e836140dc565b9150614db982614d52565b604082019050919050565b60006020820190508181036000830152614ddd81614da1565b9050919050565b6000819050919050565b600060ff82169050919050565b6000819050919050565b6000614e20614e1b614e1684614de4565b614dfb565b614dee565b9050919050565b614e3081614e05565b82525050565b6000602082019050614e4b6000830184614e27565b92915050565b7f555550535570677261646561626c653a206d757374206e6f742062652063616c60008201527f6c6564207468726f7567682064656c656761746563616c6c0000000000000000602082015250565b6000614ead6038836140dc565b9150614eb882614e51565b604082019050919050565b60006020820190508181036000830152614edc81614ea0565b9050919050565b7f4552433732313a20696e76616c696420746f6b656e2049440000000000000000600082015250565b6000614f196018836140dc565b9150614f2482614ee3565b602082019050919050565b60006020820190508181036000830152614f4881614f0c565b9050919050565b7f4552433732313a2061646472657373207a65726f206973206e6f74206120766160008201527f6c6964206f776e65720000000000000000000000000000000000000000000000602082015250565b6000614fab6029836140dc565b9150614fb682614f4f565b604082019050919050565b60006020820190508181036000830152614fda81614f9e565b9050919050565b6000604082019050614ff6600083018561407d565b61500360208301846141b9565b9392505050565b600061501582614007565b915061502083614007565b9250827fffffffffffffffffffffffffffffffffffffffffffffffffffffffffffffffff0382111561505557615054614b23565b5b828201905092915050565b6000604082019050615075600083018561407d565b615082602083018461407d565b9392505050565b600061509482614007565b91507fffffffffffffffffffffffffffffffffffffffffffffffffffffffffffffffff8214156150c7576150c6614b23565b5b600182019050919050565b600081905092915050565b60006150e8826140d1565b6150f281856150d2565b93506151028185602086016140ed565b80840191505092915050565b600061511a82856150dd565b915061512682846150dd565b91508190509392505050565b7f4f776e61626c653a206e6577206f776e657220697320746865207a65726f206160008201527f6464726573730000000000000000000000000000000000000000000000000000602082015250565b600061518e6026836140dc565b915061519982615132565b604082019050919050565b600060208201905081810360008301526151bd81615181565b9050919050565b7f4e487b7100000000000000000000000000000000000000000000000000000000600052603160045260246000fd5b7f4552433732313a207472616e736665722066726f6d20696e636f72726563742060008201527f6f776e6572000000000000000000000000000000000000000000000000000000602082015250565b600061524f6025836140dc565b915061525a826151f3565b604082019050919050565b6000602082019050818103600083015261527e81615242565b9050919050565b7f4552433732313a207472616e7366657220746f20746865207a65726f2061646460008201527f7265737300000000000000000000000000000000000000000000000000000000602082015250565b60006152e16024836140dc565b91506152ec82615285565b604082019050919050565b60006020820190508181036000830152615310816152d4565b9050919050565b61532081614504565b811461532b57600080fd5b50565b60008151905061533d81615317565b92915050565b60006020828403121561535957615358613ee4565b5b60006153678482850161532e565b91505092915050565b7f45524331393637557067726164653a206e657720696d706c656d656e7461746960008201527f6f6e206973206e6f742055555053000000000000000000000000000000000000602082015250565b60006153cc602e836140dc565b91506153d782615370565b604082019050919050565b600060208201905081810360008301526153fb816153bf565b9050919050565b7f45524331393637557067726164653a20756e737570706f727465642070726f7860008201527f6961626c65555549440000000000000000000000000000000000000000000000602082015250565b600061545e6029836140dc565b915061546982615402565b604082019050919050565b6000602082019050818103600083015261548d81615451565b9050919050565b7f496e697469616c697a61626c653a20636f6e7472616374206973206e6f74206960008201527f6e697469616c697a696e67000000000000000000000000000000000000000000602082015250565b60006154f0602b836140dc565b91506154fb82615494565b604082019050919050565b6000602082019050818103600083015261551f816154e3565b9050919050565b7f4f776e61626c653a2063616c6c6572206973206e6f7420746865206f776e6572600082015250565b600061555c6020836140dc565b915061556782615526565b602082019050919050565b6000602082019050818103600083015261558b8161554f565b9050919050565b7f4552433732313a20617070726f766520746f2063616c6c657200000000000000600082015250565b60006155c86019836140dc565b91506155d382615592565b602082019050919050565b600060208201905081810360008301526155f7816155bb565b9050919050565b7f4552433732313a207472616e7366657220746f206e6f6e20455243373231526560008201527f63656976657220696d706c656d656e7465720000000000000000000000000000602082015250565b600061565a6032836140dc565b9150615665826155fe565b604082019050919050565b600060208201905081810360008301526156898161564d565b9050919050565b7f4e487b7100000000000000000000000000000000000000000000000000000000600052601260045260246000fd5b60006156ca82614007565b91506156d583614007565b9250826156e5576156e4615690565b5b828204905092915050565b60006156fb82614007565b915061570683614007565b92508261571657615715615690565b5b828206905092915050565b7f455243313936373a206e657720696d706c656d656e746174696f6e206973206e60008201527f6f74206120636f6e747261637400000000000000000000000000000000000000602082015250565b600061577d602d836140dc565b915061578882615721565b604082019050919050565b600060208201905081810360008301526157ac81615770565b9050919050565b600081519050919050565b600082825260208201905092915050565b60006157da826157b3565b6157e481856157be565b93506157f48185602086016140ed565b6157fd81614120565b840191505092915050565b600060808201905061581d60008301876141b9565b61582a60208301866141b9565b615837604083018561407d565b818103606083015261584981846157cf565b905095945050505050565b60008151905061586381613f1a565b92915050565b60006020828403121561587f5761587e613ee4565b5b600061588d84828501615854565b91505092915050565b7f416464726573733a2064656c65676174652063616c6c20746f206e6f6e2d636f60008201527f6e74726163740000000000000000000000000000000000000000000000000000602082015250565b60006158f26026836140dc565b91506158fd82615896565b604082019050919050565b60006020820190508181036000830152615921816158e5565b9050919050565b600081905092915050565b600061593e826157b3565b6159488185615928565b93506159588185602086016140ed565b80840191505092915050565b60006159708284615933565b915081905092915050565b7f4552433732313a206d696e7420746f20746865207a65726f2061646472657373600082015250565b60006159b16020836140dc565b91506159bc8261597b565b602082019050919050565b600060208201905081810360008301526159e0816159a4565b9050919050565b7f4552433732313a20746f6b656e20616c7265616479206d696e74656400000000600082015250565b6000615a1d601c836140dc565b9150615a28826159e7565b602082019050919050565b60006020820190508181036000830152615a4c81615a10565b905091905056fe416464726573733a206c6f772d6c6576656c2064656c65676174652063616c6c206661696c6564a26469706673582212205cd6a6802319726f223162f7f9871679774bae9965c7342ac46f391c3f147c4664736f6c634300080b0033",
  "devdoc": {
    "kind": "dev",
    "methods": {
      "approve(address,uint256)": {
        "details": "See {IERC721-approve}."
      },
      "balanceOf(address)": {
        "details": "See {IERC721-balanceOf}."
      },
      "constructor": {
        "custom:oz-upgrades-unsafe-allow": "constructor"
      },
      "getApproved(uint256)": {
        "details": "See {IERC721-getApproved}."
      },
      "isApprovedForAll(address,address)": {
        "details": "See {IERC721-isApprovedForAll}."
      },
      "name()": {
        "details": "See {IERC721Metadata-name}."
      },
      "owner()": {
        "details": "Returns the address of the current owner."
      },
      "ownerOf(uint256)": {
        "details": "See {IERC721-ownerOf}."
      },
      "proxiableUUID()": {
        "details": "Implementation of the ERC1822 {proxiableUUID} function. This returns the storage slot used by the implementation. It is used to validate that the this implementation remains valid after an upgrade. IMPORTANT: A proxy pointing at a proxiable contract should not be considered proxiable itself, because this risks bricking a proxy that upgrades to it, by delegating to itself until out of gas. Thus it is critical that this function revert if invoked through a proxy. This is guaranteed by the `notDelegated` modifier."
      },
      "renounceOwnership()": {
        "details": "Leaves the contract without owner. It will not be possible to call `onlyOwner` functions anymore. Can only be called by the current owner. NOTE: Renouncing ownership will leave the contract without an owner, thereby removing any functionality that is only available to the owner."
      },
      "safeTransferFrom(address,address,uint256)": {
        "details": "See {IERC721-safeTransferFrom}."
      },
      "safeTransferFrom(address,address,uint256,bytes)": {
        "details": "See {IERC721-safeTransferFrom}."
      },
      "setApprovalForAll(address,bool)": {
        "details": "See {IERC721-setApprovalForAll}."
      },
      "supportsInterface(bytes4)": {
        "details": "See {IERC165-supportsInterface}."
      },
      "symbol()": {
        "details": "See {IERC721Metadata-symbol}."
      },
      "tokenURI(uint256)": {
        "details": "See {IERC721Metadata-tokenURI}."
      },
      "transferFrom(address,address,uint256)": {
        "details": "See {IERC721-transferFrom}."
      },
      "transferOwnership(address)": {
        "details": "Transfers ownership of the contract to a new account (`newOwner`). Can only be called by the current owner."
      },
      "upgradeTo(address)": {
        "details": "Upgrade the implementation of the proxy to `newImplementation`. Calls {_authorizeUpgrade}. Emits an {Upgraded} event."
      },
      "upgradeToAndCall(address,bytes)": {
        "details": "Upgrade the implementation of the proxy to `newImplementation`, and subsequently execute the function call encoded in `data`. Calls {_authorizeUpgrade}. Emits an {Upgraded} event."
      }
    },
    "version": 1
  },
  "userdoc": {
    "kind": "user",
    "methods": {},
    "version": 1
  },
  "storageLayout": {
    "storage": [
      {
        "astId": 527,
        "contract": "contracts/BNFT.sol:BraintrustMembershipNFT",
        "label": "_initialized",
        "offset": 0,
        "slot": "0",
        "type": "t_uint8"
      },
      {
        "astId": 530,
        "contract": "contracts/BNFT.sol:BraintrustMembershipNFT",
        "label": "_initializing",
        "offset": 1,
        "slot": "0",
        "type": "t_bool"
      },
      {
        "astId": 2144,
        "contract": "contracts/BNFT.sol:BraintrustMembershipNFT",
        "label": "__gap",
        "offset": 0,
        "slot": "1",
        "type": "t_array(t_uint256)50_storage"
      },
      {
        "astId": 2548,
        "contract": "contracts/BNFT.sol:BraintrustMembershipNFT",
        "label": "__gap",
        "offset": 0,
        "slot": "51",
        "type": "t_array(t_uint256)50_storage"
      },
      {
        "astId": 836,
        "contract": "contracts/BNFT.sol:BraintrustMembershipNFT",
        "label": "_name",
        "offset": 0,
        "slot": "101",
        "type": "t_string_storage"
      },
      {
        "astId": 838,
        "contract": "contracts/BNFT.sol:BraintrustMembershipNFT",
        "label": "_symbol",
        "offset": 0,
        "slot": "102",
        "type": "t_string_storage"
      },
      {
        "astId": 842,
        "contract": "contracts/BNFT.sol:BraintrustMembershipNFT",
        "label": "_owners",
        "offset": 0,
        "slot": "103",
        "type": "t_mapping(t_uint256,t_address)"
      },
      {
        "astId": 846,
        "contract": "contracts/BNFT.sol:BraintrustMembershipNFT",
        "label": "_balances",
        "offset": 0,
        "slot": "104",
        "type": "t_mapping(t_address,t_uint256)"
      },
      {
        "astId": 850,
        "contract": "contracts/BNFT.sol:BraintrustMembershipNFT",
        "label": "_tokenApprovals",
        "offset": 0,
        "slot": "105",
        "type": "t_mapping(t_uint256,t_address)"
      },
      {
        "astId": 856,
        "contract": "contracts/BNFT.sol:BraintrustMembershipNFT",
        "label": "_operatorApprovals",
        "offset": 0,
        "slot": "106",
        "type": "t_mapping(t_address,t_mapping(t_address,t_bool))"
      },
      {
        "astId": 1698,
        "contract": "contracts/BNFT.sol:BraintrustMembershipNFT",
        "label": "__gap",
        "offset": 0,
        "slot": "107",
        "type": "t_array(t_uint256)44_storage"
      },
      {
        "astId": 10,
        "contract": "contracts/BNFT.sol:BraintrustMembershipNFT",
        "label": "_owner",
        "offset": 0,
        "slot": "151",
        "type": "t_address"
      },
      {
        "astId": 130,
        "contract": "contracts/BNFT.sol:BraintrustMembershipNFT",
        "label": "__gap",
        "offset": 0,
        "slot": "152",
        "type": "t_array(t_uint256)49_storage"
      },
      {
        "astId": 509,
        "contract": "contracts/BNFT.sol:BraintrustMembershipNFT",
        "label": "__gap",
        "offset": 0,
        "slot": "201",
        "type": "t_array(t_uint256)50_storage"
      },
      {
        "astId": 806,
        "contract": "contracts/BNFT.sol:BraintrustMembershipNFT",
        "label": "__gap",
        "offset": 0,
        "slot": "251",
        "type": "t_array(t_uint256)50_storage"
      },
      {
        "astId": 2584,
        "contract": "contracts/BNFT.sol:BraintrustMembershipNFT",
        "label": "_tokenIdCounter",
        "offset": 0,
        "slot": "301",
        "type": "t_struct(Counter)2151_storage"
      },
      {
        "astId": 2586,
        "contract": "contracts/BNFT.sol:BraintrustMembershipNFT",
        "label": "relayer",
        "offset": 0,
        "slot": "302",
        "type": "t_address"
      },
      {
        "astId": 2588,
        "contract": "contracts/BNFT.sol:BraintrustMembershipNFT",
        "label": "baseURI",
        "offset": 0,
        "slot": "303",
        "type": "t_string_storage"
      },
      {
        "astId": 2591,
        "contract": "contracts/BNFT.sol:BraintrustMembershipNFT",
        "label": "btrstErc20",
        "offset": 0,
        "slot": "304",
        "type": "t_contract(IBTRST)3382"
      },
      {
        "astId": 2596,
        "contract": "contracts/BNFT.sol:BraintrustMembershipNFT",
        "label": "unlockedDeposits",
        "offset": 0,
        "slot": "305",
        "type": "t_mapping(t_address,t_struct(Profile)2611_storage)"
      },
      {
        "astId": 2602,
        "contract": "contracts/BNFT.sol:BraintrustMembershipNFT",
        "label": "lockedDeposits",
        "offset": 0,
        "slot": "306",
        "type": "t_mapping(t_address,t_array(t_struct(Profile)2611_storage)dyn_storage)"
      }
    ],
    "types": {
      "t_address": {
        "encoding": "inplace",
        "label": "address",
        "numberOfBytes": "20"
      },
      "t_array(t_struct(Profile)2611_storage)dyn_storage": {
        "base": "t_struct(Profile)2611_storage",
        "encoding": "dynamic_array",
        "label": "struct BraintrustMembershipNFT.Profile[]",
        "numberOfBytes": "32"
      },
      "t_array(t_uint256)44_storage": {
        "base": "t_uint256",
        "encoding": "inplace",
        "label": "uint256[44]",
        "numberOfBytes": "1408"
      },
      "t_array(t_uint256)49_storage": {
        "base": "t_uint256",
        "encoding": "inplace",
        "label": "uint256[49]",
        "numberOfBytes": "1568"
      },
      "t_array(t_uint256)50_storage": {
        "base": "t_uint256",
        "encoding": "inplace",
        "label": "uint256[50]",
        "numberOfBytes": "1600"
      },
      "t_bool": {
        "encoding": "inplace",
        "label": "bool",
        "numberOfBytes": "1"
      },
      "t_contract(IBTRST)3382": {
        "encoding": "inplace",
        "label": "contract IBTRST",
        "numberOfBytes": "20"
      },
      "t_mapping(t_address,t_array(t_struct(Profile)2611_storage)dyn_storage)": {
        "encoding": "mapping",
        "key": "t_address",
        "label": "mapping(address => struct BraintrustMembershipNFT.Profile[])",
        "numberOfBytes": "32",
        "value": "t_array(t_struct(Profile)2611_storage)dyn_storage"
      },
      "t_mapping(t_address,t_bool)": {
        "encoding": "mapping",
        "key": "t_address",
        "label": "mapping(address => bool)",
        "numberOfBytes": "32",
        "value": "t_bool"
      },
      "t_mapping(t_address,t_mapping(t_address,t_bool))": {
        "encoding": "mapping",
        "key": "t_address",
        "label": "mapping(address => mapping(address => bool))",
        "numberOfBytes": "32",
        "value": "t_mapping(t_address,t_bool)"
      },
      "t_mapping(t_address,t_struct(Profile)2611_storage)": {
        "encoding": "mapping",
        "key": "t_address",
        "label": "mapping(address => struct BraintrustMembershipNFT.Profile)",
        "numberOfBytes": "32",
        "value": "t_struct(Profile)2611_storage"
      },
      "t_mapping(t_address,t_uint256)": {
        "encoding": "mapping",
        "key": "t_address",
        "label": "mapping(address => uint256)",
        "numberOfBytes": "32",
        "value": "t_uint256"
      },
      "t_mapping(t_uint256,t_address)": {
        "encoding": "mapping",
        "key": "t_uint256",
        "label": "mapping(uint256 => address)",
        "numberOfBytes": "32",
        "value": "t_address"
      },
      "t_string_storage": {
        "encoding": "bytes",
        "label": "string",
        "numberOfBytes": "32"
      },
      "t_struct(Counter)2151_storage": {
        "encoding": "inplace",
        "label": "struct CountersUpgradeable.Counter",
        "members": [
          {
            "astId": 2150,
            "contract": "contracts/BNFT.sol:BraintrustMembershipNFT",
            "label": "_value",
            "offset": 0,
            "slot": "0",
            "type": "t_uint256"
          }
        ],
        "numberOfBytes": "32"
      },
      "t_struct(Profile)2611_storage": {
        "encoding": "inplace",
        "label": "struct BraintrustMembershipNFT.Profile",
        "members": [
          {
            "astId": 2604,
            "contract": "contracts/BNFT.sol:BraintrustMembershipNFT",
            "label": "nftTokenId",
            "offset": 0,
            "slot": "0",
            "type": "t_uint256"
          },
          {
            "astId": 2606,
            "contract": "contracts/BNFT.sol:BraintrustMembershipNFT",
            "label": "btrstAmount",
            "offset": 0,
            "slot": "1",
            "type": "t_uint256"
          },
          {
            "astId": 2608,
            "contract": "contracts/BNFT.sol:BraintrustMembershipNFT",
            "label": "available",
            "offset": 0,
            "slot": "2",
            "type": "t_uint256"
          },
          {
            "astId": 2610,
            "contract": "contracts/BNFT.sol:BraintrustMembershipNFT",
            "label": "externalId",
            "offset": 0,
            "slot": "3",
            "type": "t_uint256"
          }
        ],
        "numberOfBytes": "128"
      },
      "t_uint256": {
        "encoding": "inplace",
        "label": "uint256",
        "numberOfBytes": "32"
      },
      "t_uint8": {
        "encoding": "inplace",
        "label": "uint8",
        "numberOfBytes": "1"
      }
    }
  }
}